{
  "contractName": "TodoList",
  "abi": [
    {
      "inputs": [],
      "payable": false,
      "stateMutability": "nonpayable",
      "type": "constructor"
    },
    {
      "constant": true,
      "inputs": [],
      "name": "todoCount",
      "outputs": [
        {
          "internalType": "uint256",
          "name": "",
          "type": "uint256"
        }
      ],
      "payable": false,
      "stateMutability": "view",
      "type": "function"
    },
    {
      "constant": true,
      "inputs": [
        {
          "internalType": "uint256",
          "name": "",
          "type": "uint256"
        }
      ],
      "name": "todos",
      "outputs": [
        {
          "internalType": "uint256",
          "name": "id",
          "type": "uint256"
        },
        {
          "internalType": "string",
          "name": "content",
          "type": "string"
        },
        {
          "internalType": "bool",
          "name": "completed",
          "type": "bool"
        }
      ],
      "payable": false,
      "stateMutability": "view",
      "type": "function"
    },
    {
      "constant": false,
      "inputs": [
        {
          "internalType": "string",
          "name": "_content",
          "type": "string"
        }
      ],
      "name": "createTodo",
      "outputs": [],
      "payable": false,
      "stateMutability": "nonpayable",
      "type": "function"
    }
  ],
  "bytecode": "0x60806040526000805534801561001457600080fd5b50604080518082019091526011815270436865636b6f757420736f6c696469747960781b602082015261004f906001600160e01b0361008a16565b60408051808201909152600d81526c10da1958dadbdd5d08149d5cdd609a1b6020820152610085906001600160e01b0361008a16565b610191565b60008054600190810180835560408051606081018252828152602080820187815282840187905293865284815291909420845181559151805192936100d7939085019291909101906100f6565b50604091909101516002909101805460ff191691151591909117905550565b828054600181600116156101000203166002900490600052602060002090601f016020900481019282601f1061013757805160ff1916838001178555610164565b82800160010185558215610164579182015b82811115610164578251825591602001919060010190610149565b50610170929150610174565b5090565b61018e91905b80821115610170576000815560010161017a565b90565b6103a0806101a06000396000f3fe608060405234801561001057600080fd5b50600436106100415760003560e01c8063bc8bc2b414610046578063e34f1221146100ed578063fe0dee1714610195575b600080fd5b6100636004803603602081101561005c57600080fd5b50356101af565b604051808481526020018060200183151515158152602001828103825284818151815260200191508051906020019080838360005b838110156100b0578181015183820152602001610098565b50505050905090810190601f1680156100dd5780820380516001836020036101000a031916815260200191505b5094505050505060405180910390f35b6101936004803603602081101561010357600080fd5b81019060208101813564010000000081111561011e57600080fd5b82018360208201111561013057600080fd5b8035906020019184600183028401116401000000008311171561015257600080fd5b91908080601f01602080910402602001604051908101604052809392919081815260200183838082843760009201919091525092955061025e945050505050565b005b61019d6102ca565b60408051918252519081900360200190f35b600160208181526000928352604092839020805481840180548651600296821615610100026000190190911695909504601f8101859004850286018501909652858552909491939290919083018282801561024b5780601f106102205761010080835404028352916020019161024b565b820191906000526020600020905b81548152906001019060200180831161022e57829003601f168201915b5050506002909301549192505060ff1683565b60008054600190810180835560408051606081018252828152602080820187815282840187905293865284815291909420845181559151805192936102ab939085019291909101906102d0565b50604091909101516002909101805460ff191691151591909117905550565b60005481565b828054600181600116156101000203166002900490600052602060002090601f016020900481019282601f1061031157805160ff191683800117855561033e565b8280016001018555821561033e579182015b8281111561033e578251825591602001919060010190610323565b5061034a92915061034e565b5090565b61036891905b8082111561034a5760008155600101610354565b9056fea265627a7a7231582089e8d04d4fc21c7ba5271b6612584345eda3647dd6df1bfb0b7672fe4c86cb7d64736f6c63430005100032",
  "source": "pragma solidity ^0.5.0;\n\ncontract TodoList {\n    uint public todoCount = 0;\n\n    struct Todo {\n        uint id;\n        string content;\n        bool completed;\n    }\n\n    mapping(uint => Todo) public todos;\n\n    constructor() public {\n        createTodo(\"Checkout solidity\");\n        createTodo(\"Checkout Rust\");\n    }\n\n\n    function createTodo(string memory _content) public {\n        todoCount++;\n        todos[todoCount] = Todo(todoCount,_content,false);\n    }\n}",
  "sourcePath": "/home/deepak/personal-work/eth-todo-list/contracts/TodoList.sol",
  "compiler": {
    "name": "solc",
    "version": "0.5.16+commit.9c3226ce.Emscripten.clang"
  },
  "schemaVersion": "3.4.14",
  "updatedAt": "2023-07-17T07:20:45.629Z",
  "networkType": "ethereum",
  "devdoc": {
    "methods": {}
  },
  "userdoc": {
    "methods": {}
  }
}